:100000000C945D000C9485000C9485000C94850084
:100010000C9485000C9485000C9485000C9485004C
:100020000C9485000C9485000C9485000C9485003C
:100030000C9485000C9485000C9485000C9485002C
:100040000C94A3070C9485000C9413080C94ED07F2
:100050000C9485000C9485000C9485000C9485000C
:100060000C9445080C948500000000002400270033
:100070002A0000000000250028002B0004040404CE
:100080000404040402020202020203030303030342
:10009000010204081020408001020408102001021F
:1000A00004081020000000080002010000030407FB
:1000B0000000000000000000640911241FBECFEF03
:1000C000D8E0DEBFCDBF11E0A0E0B1E0E6EAFAE1A2
:1000D00002C005900D92AC3BB107D9F723E0ACEB21
:1000E000B1E001C01D92A03DB207E1F710E0CDE5FF
:1000F000D0E004C02197FE010E94A80BCC35D107A7
:10010000C9F70E94F6090C94510D0C94000090E080
:10011000FC01EC55FF4F2491FC01E057FF4F349157
:10012000FC01E458FF4FE491EE23C9F0222339F09B
:10013000233001F1A8F4213019F1223029F1F0E047
:10014000EE0FFF1FEE58FF4FA591B4918FB7F894B3
:10015000EC91611126C030953E233C938FBF0895EA
:100160002730A9F02830C9F0243049F78091800069
:100170008F7D03C0809180008F7780938000DFCFD8
:1001800084B58F7784BDDBCF84B58F7DFBCF809125
:10019000B0008F778093B000D2CF8091B0008F7D78
:1001A000F9CF3E2BDACFCF93DF9390E0FC01E057FD
:1001B000FF4F249184589F4FFC0184918823D1F0F4
:1001C00090E0880F991FFC01E859FF4FA591B49169
:1001D000FC01EE58FF4FC591D49161110EC09FB73D
:1001E000F8948C91E22FE0958E238C932881E22362
:1001F000E8839FBFDF91CF9108958FB7F894EC917A
:10020000E22BEC938FBFF6CF3FB7F89480910902B1
:1002100090910A02A0910B02B0910C0226B5A89B06
:1002200005C02F3F19F00196A11DB11D3FBFBA2F88
:10023000A92F982F8827BC01CD01620F711D811D48
:10024000911D42E0660F771F881F991F4A95D1F7CD
:1002500008958F929F92AF92BF92CF92DF92EF92CA
:10026000FF924B015C010E9404016B017C010E9422
:1002700004016C197D098E099F09683E7340810550
:100280009105A8F321E0821A9108A108B10888EE2F
:10029000C80E83E0D81EE11CF11C81149104A10456
:1002A000B10429F7FF90EF90DF90CF90BF90AF900F
:1002B0009F908F90089508950895AF92BF92CF9226
:1002C000DF92EF92FF920F931F93CF93DF936C0116
:1002D0007B018B01040F151FEB015E01AE18BF08F7
:1002E000C017D10759F06991D601ED91FC910190A9
:1002F000F081E02DC6010995892B79F7C501DF91C1
:10030000CF911F910F91FF90EF90DF90CF90BF9012
:10031000AF900895FC01538D448D252F30E0842F3C
:1003200090E0821B930B541710F0CF96089501971D
:100330000895FC01918D828D981761F0A28DAE0F0A
:10034000BF2FB11D5D968C91928D9F5F9F73928F91
:1003500090E008958FEF9FEF0895FC01918D828DBD
:10036000981731F0828DE80FF11D858D90E008958A
:100370008FEF9FEF0895FC01918D228D892F90E0E2
:10038000805C9F4F821B91098F73992708958FE797
:1003900092E00E94BB0121E0892B09F420E0822F2A
:1003A000089580E090E0892B29F00E94C701811117
:1003B0000C9400000895FC01A48DA80FB92FB11D65
:1003C000A35ABF4F2C91848D90E001968F7399278B
:1003D000848FA689B7892C93A089B1898C91837069
:1003E00080648C93938D848D981306C00288F38962
:1003F000E02D80818F7D80830895EF92FF920F938F
:100400001F93CF93DF93EC0181E0888F9B8D8C8DC0
:1004100098131AC0E889F989808185FF15C09FB7B4
:10042000F894EE89FF896083E889F9898081837077
:10043000806480839FBF81E090E0DF91CF911F9126
:100440000F91FF90EF900895F62E0B8D10E00F5F47
:100450001F4F0F731127E02E8C8D8E110CC00FB61D
:1004600007FCFACFE889F989808185FFF5CFCE01B5
:100470000E94DB01F1CFEB8DEC0FFD2FF11DE35A54
:10048000FF4FF0829FB7F8940B8FEA89FB89808138
:100490008062CFCFCF93DF93EC01888D8823B9F0B2
:1004A000AA89BB89E889F9898C9185FD03C080817F
:1004B00086FD0DC00FB607FCF7CF8C9185FFF2CFFC
:1004C000808185FFEDCFCE010E94DB01E9CFDF9176
:1004D000CF91089508952091DD01260F3327331F12
:1004E00021323105ECF420915502FC0190E080E0CE
:1004F000243069F082E00895A091DD012191AC01E2
:1005000043545E4FA40FB52FB11D2C93019686174F
:1005100098F38091DD01680F6093DD0180E008951C
:1005200081E008951092550281E080935402109268
:100530002F0261E082E10E94870061E083E10E9476
:100540008700E9EBF0E080818E7F808380818D7F62
:10055000808388E48093B80085E48093BC0008958C
:10056000CF93DF9391E09093BC018823B9F0C091C1
:10057000B800D091BA008091BC008A7B8093BC0007
:1005800060E082E10E94870060E083E10E948700D2
:100590000E949202D093BA00C093B800DF91CF912D
:1005A00008958F929F92AF92BF92CF92DF92EF9277
:1005B000FF920F931F93CF93DF93D0917E02D1329E
:1005C00008F0D7C0182FC0917D020E9404016B0172
:1005D0007C018091550281116BC082E080935502AD
:1005E000109354028FEF8093530210925202D093D3
:1005F0005102ADE5B2E0E1E3F2E080E0D81391C052
:100600001092300280913002CC0FC82BC093300280
:1006100080912F02813009F088C010922F020E9431
:1006200004016B017C01809130028093BB008091BA
:10063000570290915802A0915902B0915A02892B09
:100640008A2B8B2BA1F00E9404010091570210917C
:1006500058022091590230915A026C197D098E0975
:100660009F09061717072807390708F442C0809129
:10067000BC0083FDD8CF85EC8093BC000E940401B0
:100680006B017C0180915502823009F450C0809149
:1006900053028F3F09F46FC080915302803209F4F6
:1006A0006CC080915302803309F469C084E026C095
:1006B0008091570290915802A0915902B0915A022C
:1006C000892B8A2B8B2B09F484CF0E940401809004
:1006D000570290905802A0905902B0905A026C199B
:1006E0007D098E099F0986169706A806B90608F0A7
:1006F00070CF809156020E94B00285E010925C0299
:1007000010927E0210925B02DF91CF911F910F91A8
:10071000FF90EF90DF90CF90BF90AF909F908F9021
:1007200008959D9191938F5F69CF85EEA5CF8091BC
:10073000570290915802A0915902B0915A02892B08
:100740008A2B8B2B09F49ECF0E9404010091570243
:10075000109158022091590230915A026C197D096A
:100760008E099F09061717072807390708F08ACF4F
:10077000C0CF81E0C3CF80E0C1CF82E0BFCF83E0B4
:10078000BDCF0F931F93CF93DF93162F072FC8E290
:10079000D3E0A881B9819F8121E020935B029093EF
:1007A0007D0210925C0210927E02ED91FC911197F5
:1007B0000190F081E02D682FCD0109958881998104
:1007C000DC01ED91FC910190F081E02D602F099505
:1007D00088819981DC01ED91FC910190F081E02DFF
:1007E000612F099581E0DF91CF911F910F910C94BA
:1007F000D1020895E0910E0280910D02E81730F4C5
:10080000F0E0E15FFD4F808190E008958FEF9FEF72
:10081000089590910E0280910D022FEF3FEF9817EF
:1008200048F4E92FF0E0E15FFD4F208130E09F5F69
:1008300090930E02C901089580910D0290910E02CD
:10084000891B990B0895CF92DF92EF92FF920F933D
:100850001F93CF93DF937C01CB018A0120915B0230
:10086000222389F0EB016B01C40ED51ECC15DD05EA
:1008700069F06991D701ED91FC910190F081E02D33
:10088000C7010995F3CF642F0E946B02C801DF9165
:10089000CF911F910F91FF90EF90DF90CF9008952F
:1008A000CF93DF931F92CDB7DEB7698320915B02B0
:1008B0002223F9F020917E02203258F021E030E02E
:1008C000FC013383228390E080E00F90DF91CF9191
:1008D000089580915C02E82FF0E0E35AFD4F998182
:1008E00090838F5F80935C0280937E0281E090E032
:1008F000ECCF61E0CE0101960E946B02F7CFFC01C4
:10090000248131E030935B0220937D0210925C02DF
:1009100010927E028485682B8CE193E00E94500443
:1009200081E00C94D10290E080E00895CF92DF92B4
:10093000EF92FF920F931F93CF93A0912803B09152
:10094000290390912F0321E020935B0290937D0275
:1009500010925C0210927E02ED91FC911197019031
:10096000F081E02D682FCD01099580E00E94D10231
:10097000C0912F030E9404016B017C0180915502FC
:10098000811165C081E080935502809354029FEFEE
:10099000909353021092520280935102809330023E
:1009A00080913002CC0FC82BC093300280912F026F
:1009B000813009F0AAC010922F020E9404016B013D
:1009C0007C01809130028093BB008091570290910E
:1009D0005802A0915902B0915A02892B8A2B8B2B75
:1009E000A1F00E9404010091570210915802209139
:1009F000590230915A026C197D098E099F09061718
:100A000017072807390708F443C08091BC0083FD0D
:100A1000D8CF85EC8093BC000E9404016B017C015F
:100A200080915502813009F472C080915202823067
:100A300008F08FC080915202E1E3F2E0AFE0B2E053
:100A400090E0981751F121912D939F5FFACF8091FB
:100A5000570290915802A0915902B0915A02892BE5
:100A60008A2B8B2B09F48ACF0E9404010091570234
:100A7000109158022091590230915A026C197D0947
:100A80008E099F09061717072807390708F076CF40
:100A9000809156020E94B00280E010920E02809374
:100AA0000D028091280390912903DC01ED91FC91C6
:100AB0000084F185E02D0995892B09F44CC08091C3
:100AC000280390912903DC01ED91FC910284F385C8
:100AD000E02D0995C82F8091280390912903DC010E
:100AE000ED91FC910284F385E02D09952C2F30E0E7
:100AF000322F2227820F932F911DCF911F910F919B
:100B0000FF90EF90DF90CF90089585EE83CF809196
:100B1000570290915802A0915902B0915A02892B24
:100B20008A2B8B2B09F47CCF0E9404010091570281
:100B3000109158022091590230915A026C197D0986
:100B40008E099F09061717072807390708F068CF8D
:100B50009FCF82E071CF80E0C0E0C8CF4F925F921C
:100B60006F927F928F929F92AF92BF92EF92FF927D
:100B70000F931F93CF93DF93EC01A0902B03B090C2
:100B80002C0381E00E9496048C0181E00E9496046F
:100B900020E031E030932E0320932D039E77BC019B
:100BA000716081E00E94C103C11582E0D80709F499
:100BB0004BC0C11584E0D80709F4A4C0209731F4D4
:100BC00080E098E190932C0380932B03C801892F38
:100BD00099278695877099278C179D07D9F5B801B5
:100BE00071776C2B7D2B81E00E94C10381E00E9414
:100BF0009604807E992720912A032111C1C0803656
:100C0000910509F4AEC008F080C08032910509F466
:100C10009EC08034910509F49FC0892B09F07DC0E6
:100C200062E870E080E090E0DF91CF911F910F913A
:100C3000FF90EF90BF90AF909F908F907F906F90BC
:100C40005F904F900C94290180E090E190932C03E9
:100C500080932B03C80183709927039709F4BFCFB2
:100C600083E00E9496047C01B50190E080E00E9440
:100C7000560C4B015C0160912B0370912C0390E0AA
:100C800080E00E94560C9B01AC01C501B4010E949A
:100C9000AE0B2B013C01B701FF0C880B990B0E9496
:100CA000580C9B01AC01C301B2010E94E40C0E94EC
:100CB000200C83E00E94C10382E00E9496047C0124
:100CC00060912B0370912C0390E080E00E94560C01
:100CD0009B01AC01C501B4010E94AE0B4B015C014C
:100CE000B701FF0C880B990B0E94580C9B01AC01BB
:100CF000C501B4010E94E40C0E94200C82E00E9415
:100D0000C1036DCF80E098E0A1CF803A910571F1E9
:100D100098F48038910509F43FC0DF91CF911F917D
:100D20000F91FF90EF90BF90AF909F908F907F902A
:100D30006F905F904F900895803C9105E1F0803E68
:100D4000910559F762E070E080E090E06DCF61E4DA
:100D500070E080E090E068CF60E270E080E090E0DA
:100D600063CF60E170E080E090E05ECF64E070E02F
:100D700080E090E059CF63E070E080E090E054CFF5
:100D80008036910551F168F48032910509F1803483
:100D90009105C1F2892B09F668E070E080E090E0EF
:100DA00043CF803A9105F1F048F48038910509F07D
:100DB000B4CF87E89AE00197F1F7AFCF803C910577
:100DC00021F0803E910509F0A8CF83E295E0F3CFB2
:100DD00065E070E080E090E027CF61E070E080E0C7
:100DE00090E022CF83E097E0E6CF0F931F93CF935D
:100DF0008C01C62F0E947F046C2F6460C8010E9482
:100E00007F046C2F6B7FC8010E947F0483EC90E00D
:100E10000197F1F7CF911F910F9108950F931F93B1
:100E2000CF93DF938C01D62FC42F607F642B0E9459
:100E3000F50680E1D89FB00111246C2BC801DF9129
:100E4000CF911F910F910C94F506CF93DF93CDB7FF
:100E5000DEB728970FB6F894DEBF0FBECDBF98E07F
:100E6000E0E0F1E0DE01119601900D929A95E1F734
:100E70009091CB03981708F48FEF90E0880F991F9B
:100E800021E030E02C0F3D1F820F931FFC01608199
:100E9000606840E083EC93E028960FB6F894DEBFDC
:100EA0000FBECDBFDF91CF910C940E0741E00E94A1
:100EB0000E0781E090E00895FB0101900020E9F722
:100EC0003197AF01461B570BDC01ED91FC9102807D
:100ED000F381E02D099485ED8093BC008091570249
:100EE00090915802A0915902B0915A020796A11D03
:100EF000B11D23E0B695A795979587952A95D1F7CB
:100F00002091BC0024FD03C0109255020895409129
:100F10005702509158026091590270915A02452B24
:100F2000462B472B69F30097A105B10541F02AE252
:100F30002A95F1F700C00197A109B109E1CF80918D
:100F400056020C94B0021F920F920FB60F9211240A
:100F50002F933F938F939F93AF93BF9380910502FD
:100F600090910602A0910702B0910802309104020C
:100F700023E0230F2D3758F50196A11DB11D2093B5
:100F800004028093050290930602A0930702B09397
:100F900008028091090290910A02A0910B02B0917F
:100FA0000C020196A11DB11D8093090290930A02C3
:100FB000A0930B02B0930C02BF91AF919F918F91C0
:100FC0003F912F910F900FBE0F901F90189526E81C
:100FD000230F0296A11DB11DD2CF1F920F920FB603
:100FE0000F9211242F933F934F935F936F937F93AF
:100FF0008F939F93AF93BF93EF93FF938FE792E00D
:101000000E94DB01FF91EF91BF91AF919F918F9172
:101010007F916F915F914F913F912F910F900FBEF4
:101020000F901F9018951F920F920FB60F921124D8
:101030002F938F939F93EF93FF93E0918F02F09103
:1010400090028081E0919502F091960282FD1BC092
:101050009081809198028F5F8F73209199028217FF
:1010600041F0E0919802F0E0E158FD4F958F8093B8
:101070009802FF91EF919F918F912F910F900FBE4A
:101080000F901F9018958081F4CF1F920F920FB68A
:101090000F9211242F933F934F935F936F937F93FE
:1010A0008F939F93AF93BF93EF93FF938091B9007A
:1010B000887F803609F44AC0F0F5883209F4A7C069
:1010C00018F5803109F49BC0B8F4882309F4F9C0FD
:1010D000883009F494C0FF91EF91BF91AF919F9137
:1010E0008F917F916F915F914F913F912F910F90D1
:1010F0000FBE0F901F901895883109F488C0803278
:1011000051F78093530214C0803409F49DC040F419
:101110008033B9F38833F9F68093530285ECB0C07D
:10112000803509F485C0883509F496C0883499F66D
:101130000E946B07D0CF883909F48CC038F5883706
:1011400029F050F4883611F0803729F683E0809337
:1011500055021092FF0157C0883809F47BC08039CE
:1011600019F0803809F0B7CF8091FF01803208F084
:1011700071C0E091FF0181E08E0F8093FF018091AB
:10118000BB00F0E0E152FE4F80833DC0803B39F070
:10119000E0F4803A09F479C0883A09F09CCF84E001
:1011A000809355021092DE011092DD01E09102025F
:1011B000F091030209958091DD0181110FC081E05A
:1011C0008093DD011092BD0109C0803C09F4A6CFD7
:1011D000883C09F4A3CF883B09F07DCFE091DE0184
:1011E00081E08E0F8093DE01F0E0E354FE4F8081BA
:1011F0008093BB009091DE018091DD0129C0809138
:1012000030028093BB0085EC8093BC0064CF90914A
:10121000520280915102981758F5E091520281E0F4
:101220008E0F80935202F0E0EF5CFD4F8081E9CF9A
:10123000E091520281E08E0F809352028091BB00B8
:10124000F0E0EF5CFD4F808390915202809151025B
:101250009817C8F285E8D8CFE091520281E08E0F4E
:10126000809352028091BB00F0E0EF5CFD4F8083E1
:101270008091540281115CCF81E080932F0284EA37
:101280008093BC001092550226CF85EC8093BC0061
:10129000109255028091FF01803230F4E091FF01FD
:1012A000F0E0E152FE4F10826091FF0170E0E091AA
:1012B0000002F09101028FED91E009951092FF017B
:1012C0000ACF1092530234CFCF93DF93EFE7F2E0CF
:1012D0001382128288EE93E0A0E0B0E084839583CD
:1012E000A683B78324E731E03183208325EC30E007
:1012F0003587248724EC30E03787268720EC30E0E0
:10130000318B208B21EC30E0338B228B22EC30E0D0
:10131000358B248B26EC30E0378B268B118E128E8A
:10132000138E148ECCE1D3E01B821A828C839D83B2
:10133000AE83BF8386E891E09983888380E2E8E00A
:10134000F1E0A3E5B3E001900D928A95E1F780E228
:10135000E8E2F1E0A3E7B3E001900D928A95E1F7AE
:1013600080E2E8E4F1E0A3E9B3E001900D928A9510
:10137000E1F7E3EBF3E088E0DF011D928A95E9F7FE
:1013800084E08093B40396E09093B5032FE120931B
:10139000B6039093B7038093B80388E0E8E6F1E0E2
:1013A000ABEBB3E001900D928A95E1F71092C60382
:1013B0001092C50388E991E09093C4038093C3031E
:1013C0001092CC0387E28093C70380E18093CD0322
:1013D00082E08093CE031092CF03E8E2F3E0D18362
:1013E000C08388E48783DF91CF910895789484B592
:1013F000826084BD84B5816084BD85B5826085BD11
:1014000085B5816085BD80916E00816080936E009E
:101410001092810080918100826080938100809190
:101420008100816080938100809180008160809341
:1014300080008091B10084608093B1008091B00001
:1014400081608093B00080917A00846080937A00FC
:1014500080917A00826080937A0080917A00816026
:1014600080937A0080917A00806880937A0010924D
:10147000C100E0918F02F091900282E08083E091C0
:101480008B02F0918C021082E0918D02F0918E021D
:1014900080E1808310929702E0919302F091940290
:1014A00086E08083E0919102F091920280818061D8
:1014B0008083E0919102F091920280818860808324
:1014C000E0919102F0919202808180688083E091A6
:1014D0009102F091920280818F7D808310920E02A2
:1014E00010920D0210925C0210927E020E949202F3
:1014F0008BE591E090930302809302028CE591E0EA
:1015000090930102809300021092C8038091CE0351
:10151000823018F098E09093C8038093CB0362E385
:1015200070E080E090E00E9429016091CF0383EC9D
:1015300093E00E947F0468EE73E080E090E00E94F8
:10154000290160E383EC93E00E94F506CBE4D6E446
:10155000CE010197F1F760E383EC93E00E94F5067A
:101560002197F1F760E383EC93E00E94F50683E5B1
:1015700092E00197F1F760E283EC93E00E94F506B8
:101580006091C803606240E083EC93E00E940E0724
:1015900084E08093C90340E06CE083EC93E00E9418
:1015A0000E0740E061E083EC93E00E940E078BE3BE
:1015B0009FE10197F1F78091CC03882319F080E037
:1015C0000E94250782E08093CA0340E066E083EC36
:1015D00093E00E940E0740E062E083EC93E00E94FB
:1015E0000E078BE39FE10197F1F788E08093CF032B
:1015F00060E083EC93E00E947F0440E060E483ECD1
:1016000093E00E940E07C3EBD3E00BEB13E069916C
:1016100083EC93E00E9456070C171D07C1F740E0CA
:1016200068E483EC93E00E940E07CBEBD3E0699172
:1016300083EC93E00E94560783E0C33CD807B9F7D8
:1016400081E493E0E1E3F3E020E221938E179F072A
:10165000E1F7E2E4F3E080E2819393E0E235F90719
:10166000D9F760E086E00E94D30060E087E00E9446
:10167000D30060E088E00E94D30061E082E00E9435
:10168000D30061E083E00E94D30061E084E00E9427
:10169000D30061E085E00E94D30010922A0380917C
:1016A0002F0391E090935B0280937D0210925C0285
:1016B00010927E0281E00E94D102882369F160EAE3
:1016C00071E08FE792E00E945C0769EB71E08FE7C1
:1016D00092E00E945C0790E080E00E94AE0580E00E
:1016E0000E94250761E373E083EC93E00E945C07AE
:1016F00081E00E94250762E473E083EC93E00E949E
:101700005C07C0E0D0E02097F1F30E94C701882376
:10171000D1F30E940000F7CF63E875E881E00E94F2
:10172000C10380E094E00E94AE0560E070E882E0D2
:101730000E94C1036FEF7FE783E00E94C10380E056
:1017400091E090932E0380932D0310923003C3CF2A
:10175000EE0FFF1F0590F491E02D09940E94C20B3B
:101760000C94AA0C0E94A30C58F00E949C0C40F010
:1017700029F45F3F29F00C94930C51110C94DE0C6A
:101780000C94990C0E94BB0C68F39923B1F3552378
:1017900091F3951B550BBB27AA2762177307840784
:1017A00038F09F5F5F4F220F331F441FAA1FA9F31A
:1017B00035D00E2E3AF0E0E832D091505040E69508
:1017C000001CCAF72BD0FE2F29D0660F771F881F69
:1017D000BB1F261737074807AB07B0E809F0BB0B5C
:1017E000802DBF01FF2793585F4F3AF09E3F510570
:1017F00078F00C94930C0C94DE0C5F3FE4F3983E6D
:10180000D4F3869577956795B795F7959F5FC9F758
:10181000880F911D9695879597F90895E1E0660FD9
:10182000771F881FBB1F621773078407BA0720F052
:10183000621B730B840BBA0BEE1F88F7E0950895BB
:101840000E94270C6894B1110C94DE0C08950E943C
:10185000C30C88F09F5798F0B92F9927B751B0F073
:10186000E1F0660F771F881F991F1AF0BA95C9F724
:1018700014C0B13091F00E94DD0CB1E008950C94D9
:10188000DD0C672F782F8827B85F39F0B93FCCF38C
:10189000869577956795B395D9F73EF490958095A1
:1018A000709561957F4F8F4F9F4F0895E89409C0C1
:1018B00097FB3EF490958095709561957F4F8F4F83
:1018C0009F4F9923A9F0F92F96E9BB279395F69599
:1018D000879577956795B795F111F8CFFAF4BB0F17
:1018E00011F460FF1BC06F5F7F4F8F4F9F4F16C07B
:1018F000882311F096E911C0772321F09EE8872F05
:10190000762F05C0662371F096E8862F70E060E0C0
:101910002AF09A95660F771F881FDAF7880F969539
:10192000879597F9089597F99F6780E870E060E0E0
:1019300008959FEF80EC089500240A941616170668
:1019400018060906089500240A94121613061406B0
:1019500005060895092E0394000C11F4882352F013
:10196000BB0F40F4BF2B11F460FF04C06F5F7F4FCB
:101970008F4F9F4F089557FD9058440F551F59F0B2
:101980005F3F71F04795880F97FB991F61F09F3F6C
:1019900079F087950895121613061406551FF2CF95
:1019A0004695F1DF08C0161617061806991FF1CFE5
:1019B00086957105610508940895E894BB2766270C
:1019C0007727CB0197F908950E94F70C0C94AA0C85
:1019D0000E949C0C38F00E94A30C20F0952311F07B
:1019E0000C94930C0C94990C11240C94DE0C0E9412
:1019F000BB0C70F3959FC1F3950F50E0551F629F8C
:101A0000F001729FBB27F00DB11D639FAA27F00D57
:101A1000B11DAA1F649F6627B00DA11D661F829F7E
:101A20002227B00DA11D621F739FB00DA11D621F63
:101A3000839FA00D611D221F749F3327A00D611D80
:101A4000231F849F600D211D822F762F6A2F112462
:101A50009F5750409AF0F1F088234AF0EE0FFF1F95
:101A6000BB1F661F771F881F91505040A9F79E3FEC
:101A7000510580F00C94930C0C94DE0C5F3FE4F362
:101A8000983ED4F3869577956795B795F795E79542
:101A90009F5FC1F7FE2B880F911D9695879597F94B
:061AA0000895F894FFCF49
:101AA60000004000140054002053455455500000D7
:101AB6000000000000000000204D454153555245EE
:101AC60000000000000000002052616E67653A20A9
:101AD6000000000000000000204176657261676525
:101AE6003A20000000000000493D3130306D4120B1
:101AF600204176673D333200203130306D4F686DBE
:101B060073000000000000001F1B1900191B1F1F97
:101B160000000000FD015D018A014A02BB01990136
:101B2600AD0100000000500423049304F9031C04D3
:101B36000904FA030000000056075D0193046A02D7
:101B460043616E277420636F6E6E65637420746FD5
:0C1B56002074686520414443000D0A0023
:00000001FF
