:100000000C9458000C9480000C9480000C94800098
:100010000C9480000C9480000C9480000C94800060
:100020000C9480000C9480000C9480000C94800050
:100030000C9480000C9480000C9480000C94800040
:100040000C94A4020C9480000C9414030C94EE0203
:100050000C9480000C9480000C9480000C94800020
:100060000C9446030C94800000000000250028003A
:100070002B00040404040404040402020202020229
:10008000030303030303010204081020408001025C
:1000900004081020010204081020000000080002DB
:1000A00001000003040700000000000000006104DC
:1000B00011241FBECFEFD8E0DEBFCDBF11E0A0E01E
:1000C000B1E0E2E3FAE002C005900D92A231B1077F
:1000D000D9F722E0A2E1B1E001C01D92A932B20736
:1000E000E1F710E0C8E5D0E004C02197FE010E94CE
:1000F0001105C735D107C9F70E948E040C94170566
:100100000C94000090E0FC01E656FF4F2491FC01A6
:10011000EA57FF4F3491FC01EE58FF4FE491EE2374
:10012000C9F0222339F0233001F1A8F4213019F16C
:10013000223029F1F0E0EE0FFF1FE859FF4FA591A3
:10014000B4918FB7F894EC91611126C030953E239D
:100150003C938FBF08952730A9F02830C9F0243090
:1001600049F7809180008F7D03C0809180008F7758
:1001700080938000DFCF84B58F7784BDDBCF84B5DB
:100180008F7DFBCF8091B0008F778093B000D2CF6E
:100190008091B0008F7DF9CF3E2BDACFAF92BF9226
:1001A000CF92DF92EF92FF920F931F93CF93DF9343
:1001B0006C017B018B01040F151FEB015E01AE1872
:1001C000BF08C017D10759F06991D601ED91FC9194
:1001D0000190F081E02DC6010995892B79F7C501C1
:1001E000DF91CF911F910F91FF90EF90DF90CF9013
:1001F000BF90AF900895FC01538D448D252F30E0C2
:10020000842F90E0821B930B541710F0CF96089523
:1002100001970895FC01918D828D981761F0A28D50
:10022000AE0FBF2FB11D5D968C91928D9F5F9F7316
:10023000928F90E008958FEF9FEF0895FC01918DCC
:10024000828D981731F0828DE80FF11D858D90E039
:1002500008958FEF9FEF0895FC01918D228D892FD6
:1002600090E0805C9F4F821B91098F7399270895BE
:100270008CE891E00E942C0121E0892B09F420E018
:10028000822F089580E090E0892B29F00E943801A8
:1002900081110C9400000895FC01A48DA80FB92FC2
:1002A000B11DA35ABF4F2C91848D90E001968F739E
:1002B0009927848FA689B7892C93A089B1898C91BD
:1002C000837080648C93938D848D981306C002880C
:1002D000F389E02D80818F7D80830895EF92FF92D6
:1002E0000F931F93CF93DF93EC0181E0888F9B8D59
:1002F0008C8D98131AC0E889F989808185FF15C013
:100300009FB7F894EE89FF896083E889F989808135
:100310008370806480839FBF81E090E0DF91CF9104
:100320001F910F91FF90EF900895F62E0B8D10E026
:100330000F5F1F4F0F731127E02E8C8D8E110CC095
:100340000FB607FCFACFE889F989808185FFF5CFE0
:10035000CE010E944C01F1CFEB8DEC0FFD2FF11D72
:10036000E35AFF4FF0829FB7F8940B8FEA89FB891D
:1003700080818062CFCFCF93DF93EC01888D88237B
:10038000B9F0AA89BB89E889F9898C9185FD03C0F8
:10039000808186FD0DC00FB607FCF7CF8C9185FFDD
:1003A000F2CF808185FFEDCFCE010E944C01E9CFD5
:1003B000DF91CF91089520913901260F3327331F04
:1003C00021323105ECF420915D01FC0190E080E0E8
:1003D000243069F082E00895A09139012191AC01A7
:1003E000475E5E4FA40FB52FB11D2C930196861763
:1003F00098F380913901680F6093390180E0089586
:1004000081E0089508958FEF9FEF08958FEF9FEF9C
:1004100008958091120190E0919581959109089538
:10042000CF93DF93CB01EA01642F0E94DB01CE0161
:10043000DF91CF910895CF93DF931F92CDB7DEB7B1
:10044000698361E0CE0101960E94DB0181E090E0CA
:100450000F90DF91CF91089590E080E008951F9371
:10046000CF93DF9385ED8093BC008091150190912F
:100470001601A0911701B09118010796A11DB11D99
:1004800023E0B695A795979587952A95D1F7209162
:10049000BC0024FD03C010925D0152C040911501C3
:1004A000509116016091170170911801452B462B50
:1004B000472B69F30097A105B10541F02AE22A957F
:1004C000F1F700C00197A109B109E1CF80911401B2
:1004D000C1E0C0931301882399F1D091B800109125
:1004E000BA008091BC008A7B8093BC0060E082E10E
:1004F0000E94820060E083E10E94820010925D0110
:10050000C0935F0110925E0161E082E10E9482006F
:1005100061E083E10E9482008091B9008E7F809328
:10052000B9008091B9008D7F8093B90088E48093F1
:10053000B80085E48093BC001093BA00D093B80053
:10054000DF91CF911F9108951F920F920FB60F92D6
:1005500011242F933F938F939F93AF93BF938091D9
:10056000880190918901A0918A01B0918B0130910D
:10057000870123E0230F2D3758F50196A11DB11DEA
:10058000209387018093880190938901A0938A0129
:10059000B0938B018091830190918401A09185019A
:1005A000B09186010196A11DB11D809383019093A6
:1005B0008401A0938501B0938601BF91AF919F9173
:1005C0008F913F912F910F900FBE0F901F90189514
:1005D00026E8230F0296A11DB11DD2CF1F920F92C4
:1005E0000FB60F9211242F933F934F935F936F9306
:1005F0007F938F939F93AF93BF93EF93FF938CE879
:1006000091E00E944C01FF91EF91BF91AF919F91BA
:100610008F917F916F915F914F913F912F910F90AB
:100620000FBE0F901F9018951F920F920FB60F924A
:1006300011242F938F939F93EF93FF93E0919C014D
:10064000F0919D018081E091A201F091A30182FDD2
:100650001BC090818091A5018F5F8F732091A601AF
:10066000821741F0E091A501F0E0E457FE4F958F2D
:100670008093A501FF91EF919F918F912F910F9002
:100680000FBE0F901F9018958081F4CF1F920F928C
:100690000FB60F9211242F933F934F935F936F9355
:1006A0007F938F939F93AF93BF93EF93FF9380912B
:1006B000B900887F803609F44AC0F0F5883209F421
:1006C000A5C018F5803109F499C0B8F4882309F45D
:1006D000F5C0883009F492C0FF91EF91BF91AF91BE
:1006E0009F918F917F916F915F914F913F912F914A
:1006F0000F900FBE0F901F901895883109F486C097
:10070000803251F780935C0114C0803409F49BC09F
:1007100040F48033B9F38833F9F680935C0185ECBB
:10072000AEC0803509F483C0883509F494C088349C
:1007300099F60E942F02D0CF883909F48AC038F583
:10074000883729F050F4883611F0803729F683E095
:1007500080935D0110925B0155C0883809F479C01F
:10076000803919F0803809F0B7CF80915B01803271
:1007700008F06FC0E0915B0181E08E0F80935B0118
:100780008091BB00F0E0E55CFE4F80833BC0803B86
:1007900039F0D0F4803A09F477C0883A09F09CCF58
:1007A00084E080935D0110923A0110923901F0E0EB
:1007B000E0E009958091390181110FC081E08093BB
:1007C00039011092190109C0803C09F4A8CF883C76
:1007D00009F4A5CF883B09F07FCFE0913A0181E091
:1007E0008E0F80933A01F0E0E75EFE4F80818093A8
:1007F000BB0090913A018091390129C0809182011A
:100800008093BB0085EC8093BC0066CF9091810102
:1008100080918001981758F5E091810181E08E0F59
:1008200080938101F0E0E05AFE4F8081E9CFE091B2
:10083000810181E08E0F809381018091BB00F0E007
:10084000E05AFE4F8083909181018091800198173A
:10085000C8F285E8D8CFE091810181E08E0F8093C6
:1008600081018091BB00F0E0E05AFE4F80838091CF
:100870005F0181115ECF81E080935E0184EA809305
:10088000BC0010925D0128CF85EC8093BC001092D3
:100890005D0180915B01803230F4E0915B01F0E01A
:1008A000E55CFE4F108260915B0170E08BE391E0AC
:1008B000F0E0E0E0099510925B010ECF10925C0130
:1008C00038CFECE8F1E01382128288EE93E0A0E0EA
:1008D000B0E084839583A683B78384E091E091831D
:1008E000808385EC90E09587848784EC90E09787FF
:1008F000868780EC90E0918B808B81EC90E0938BED
:10090000828B82EC90E0958B848B86EC90E0978BC9
:10091000868B118E128E138E148E0895789484B562
:10092000826084BD84B5816084BD85B5826085BDEB
:1009300085B5816085BD80916E00816080936E0079
:10094000109281008091810082608093810080916B
:10095000810081608093810080918000816080931C
:1009600080008091B10084608093B1008091B000DC
:1009700081608093B00080917A00846080937A00D7
:1009800080917A00826080937A0080917A00816001
:1009900080937A0080917A00806880937A00109228
:1009A000C100E0919C01F0919D0182E08083E09183
:1009B0009801F09199011082E0919A01F0919B01C8
:1009C00080E180831092A401E091A001F091A10147
:1009D00086E08083E0919E01F0919F01808180619B
:1009E0008083E0919E01F0919F01808188608083E7
:1009F000E0919E01F0919F01808180688083E09169
:100A00009E01F0919F0180818F7D8083C0E0D0E0C6
:100A10002097F1F30E9438018823D1F30E9400004F
:100A2000F7CFEE0FFF1F0590F491E02D0994F89495
:020A3000FFCFF6
:100A3200000000006E01CE00FB00BB012C010A0188
:020A42001E0193
:00000001FF
