:100000000C94A3000C94CB000C94CB000C94CB006C
:100010000C94CB000C94CB000C94CB000C94CB0034
:100020000C94CB000C94CB000C94CB000C94CB0024
:100030000C94CB000C94CB000C94CB000C94CB0014
:100040000C94E2080C94CB000C9452090C942C09EB
:100050000C94CB000C94CB000C94CB000C94CB00F4
:100060000C9484090C94CB0007634236B79BD8A745
:100070001A39685618AEBAAB558C1D3CB7CC5763CD
:10008000BD6DEDFD753EF6177231BF000000803F7B
:1000900008000000BE922449123EABAAAA2ABECD97
:1000A000CCCC4C3E00000080BEABAAAAAA3E000009
:1000B0000000BF000000803F000000000008417801
:1000C000D3BB4387D1133D190E3CC3BD4282AD2B38
:1000D0003E68EC8276BED98FE1A93E4C80EFFFBE30
:1000E00001C4FF7F3F00000000000000000024006A
:1000F00027002A0000000000250028002B00000037
:10010000000023002600290004040404040404045D
:1001100002020202020203030303030301020408B2
:100120001020408001020408102001020408102061
:1001300000000008000201000003040700000000A6
:1001400000000000A30A11241FBECFEFD8E0DEBFDD
:10015000CDBF12E0A0E0B1E0E6ECFDE202C0059008
:100160000D92AE34B107D9F724E0AEE4B2E001C09D
:100170001D92AC37B207E1F710E0C3EAD0E004C04B
:100180002197FE010E945A10C23AD107C9F70E9476
:10019000500B0C94E1160C940000833081F028F48D
:1001A000813099F08230A9F008958730A9F0883025
:1001B000C9F08430B1F4809180008F7D03C08091BC
:1001C00080008F7780938000089584B58F7784BDF9
:1001D000089584B58F7DFBCF8091B0008F77809399
:1001E000B00008958091B0008F7DF9CF1F93CF9319
:1001F000DF93282F30E0F901E05DFE4F8491F90193
:10020000E45EFE4FD491F901E85FFE4FC491CC2328
:10021000A9F0162F81110E94CD00EC2FF0E0EE0F17
:10022000FF1FEC50FF4FA591B4918FB7F894EC915C
:10023000111108C0D095DE23DC938FBFDF91CF91E1
:100240001F910895DE2BF8CFCF93DF9390E0FC0150
:10025000E45EFE4F2491885F9E4FFC0184918823C9
:10026000D1F090E0880F991FFC01E651FF4FA59156
:10027000B491FC01EC50FF4FC591D49161110EC0B7
:100280009FB7F8948C91E22FE0958E238C93288170
:10029000E223E8839FBFDF91CF9108958FB7F89451
:1002A000EC91E22BEC938FBFF6CF3FB7F89480919F
:1002B000A9029091AA02A091AB02B091AC0226B51E
:1002C000A89B05C02F3F19F00196A11DB11D3FBF8E
:1002D000BA2FA92F982F8827BC01CD01620F711D5D
:1002E000811D911D42E0660F771F881F991F4A9557
:1002F000D1F708958F929F92AF92BF92CF92DF92E3
:10030000EF92FF926B017C010E9455014B015C0151
:10031000C114D104E104F104B9F00E945501681937
:1003200079098A099B09683E73408105910580F32C
:1003300021E0C21AD108E108F10888EE880E83E0B6
:10034000981EA11CB11CE4CFFF90EF90DF90CF90DE
:10035000BF90AF909F908F9008952091CC03211172
:1003600040C08036910549F178F480329105D9F08A
:1003700080349105E9F0892B09F061C062E870E0F2
:1003800080E090E00C947A01803A9105D9F020F455
:100390008038910591F10895803C9105C1F0803E2F
:1003A0009105D1F0089561E470E080E090E0EACF3B
:1003B00060E270E080E090E0E5CF60E170E080E036
:1003C00090E0E0CF64E070E080E090E0DBCF63E0BD
:1003D00070E080E090E0D6CF62E070E080E090E0F6
:1003E000D1CF8036910511F168F480329105C9F0C2
:1003F0008034910589F3892B11F568E070E080E085
:1004000090E0C0CF803A9105D9F020F48038910572
:1004100091F00895803C9105B1F0803E910599F0EE
:10042000089565E070E080E090E0ACCF61E070E0BE
:1004300080E090E0A7CF87E89AE00197F1F7089570
:1004400083E097E0FACF83E295E0F7CF2FB7F894F7
:100450006091A5027091A6028091A7029091A802D6
:100460002FBF08951F93CF93DF939C01FC01E05DA4
:10047000FE4F9491F901E45EFE4F1491F901E85F9B
:10048000FE4FC491C11106C0D0E08D2FDF91CF91F6
:100490001F910895D82F992319F0892F0E94CD001C
:1004A000EC2FF0E0EE0FFF1FE250FF4FA591B4914B
:1004B000EC91E12349F30E94260263337105810523
:1004C000910510F30E942602E0CF08950895AF929F
:1004D000BF92CF92DF92EF92FF920F931F93CF9331
:1004E000DF936C017B018B01040F151FEB015E0193
:1004F000AE18BF08C017D10759F06991D601ED9128
:10050000FC910190F081E02DC6010995892B79F7C6
:10051000C501DF91CF911F910F91FF90EF90DF9078
:10052000CF90BF90AF900895FC01538D448D252F3F
:1005300030E0842F90E0821B930B541710F0CF967D
:10054000089501970895FC01918D828D981761F0AF
:10055000A28DAE0FBF2FB11D5D968C91928D9F5FC6
:100560009F73928F90E008958FEF9FEF0895FC01A5
:10057000918D828D981731F0828DE80FF11D858D58
:1005800090E008958FEF9FEF0895FC01918D228DEB
:10059000892F90E0805C9F4F821B91098F73992770
:1005A00008958FE193E00E94C50221E0892B09F4B0
:1005B00020E0822F089580E090E0892B29F00E94AE
:1005C000D10281110C9400000895FC01A48DA80FA4
:1005D000B92FB11DA35ABF4F2C91848D90E0019685
:1005E0008F739927848FA689B7892C93A089B189A5
:1005F0008C91837080648C93938D848D981306C046
:100600000288F389E02D80818F7D80830895EF92A9
:10061000FF920F931F93CF93DF93EC0181E0888FBC
:100620009B8D8C8D98131AC0E889F989808185FF8C
:1006300015C09FB7F894EE89FF896083E889F9892E
:1006400080818370806480839FBF81E090E0DF9130
:10065000CF911F910F91FF90EF900895F62E0B8D83
:1006600010E00F5F1F4F0F731127E02E8C8D8E113E
:100670000CC00FB607FCFACFE889F989808185FFA5
:10068000F5CFCE010E94E502F1CFEB8DEC0FFD2FEF
:10069000F11DE35AFF4FF0829FB7F8940B8FEA8960
:1006A000FB8980818062CFCFCF93DF93EC01888D6F
:1006B0008823B9F0AA89BB89E889F9898C9185FDDD
:1006C00003C0808186FD0DC00FB607FCF7CF8C916B
:1006D00085FFF2CF808185FFEDCFCE010E94E5023C
:1006E000E9CFDF91CF910895089520916F02260FF1
:1006F0003327331F21323105ECF42091F502FC0140
:1007000090E080E0243069F082E00895A0916F02CB
:100710002191AC01415B5D4FA40FB52FB11D2C930E
:100720000196861798F380916F02680F60936F02AD
:1007300080E0089581E008951092F50281E08093B1
:10074000F4021092CF0261E082E10E94F60061E0C3
:1007500083E10E94F600E9EBF0E080818E7F8083E8
:1007600080818D7F808388E48093B80085E48093C6
:10077000BC000895CF93DF9391E090934E028823BD
:10078000B9F0C091B800D091BA008091BC008A7BCA
:100790008093BC0060E082E10E94F60060E083E1AB
:1007A0000E94F6000E949C03D093BA00C093B80048
:1007B000DF91CF9108958F929F92AF92BF92CF9287
:1007C000DF92EF92FF920F931F93CF93DF93D0911D
:1007D0001E03D13208F0D7C0182FC0911D030E940C
:1007E00055016B017C018091F50281116BC082E0A3
:1007F0008093F5021093F4028FEF8093F30210922E
:10080000F202D093F102ADEFB2E0E1EDF2E080E070
:10081000D81391C01092D0028091D002CC0FC82B77
:10082000C093D0028091CF02813009F088C010922D
:10083000CF020E9455016B017C018091D002809310
:10084000BB008091F7029091F802A091F902B0915B
:10085000FA02892B8A2B8B2BA1F00E945501009163
:10086000F7021091F8022091F9023091FA026C1906
:100870007D098E099F09061717072807390708F40D
:1008800042C08091BC0083FDD8CF85EC8093BC0032
:100890000E9455016B017C018091F502823009F4C0
:1008A00050C08091F3028F3F09F46FC08091F30232
:1008B000803209F46CC08091F302803309F469C07E
:1008C00084E026C08091F7029091F802A091F9028D
:1008D000B091FA02892B8A2B8B2B09F484CF0E94CA
:1008E00055018090F7029090F802A090F902B09024
:1008F000FA026C197D098E099F0986169706A806CB
:10090000B90608F070CF8091F6020E94BA0385E024
:100910001092FC0210921E031092FB02DF91CF9105
:100920001F910F91FF90EF90DF90CF90BF90AF900D
:100930009F908F9008959D9191938F5F69CF85EEE1
:10094000A5CF8091F7029091F802A091F902B091A1
:10095000FA02892B8A2B8B2B09F49ECF0E9455011A
:100960000091F7021091F8022091F9023091FA02F9
:100970006C197D098E099F09061717072807390783
:1009800008F08ACFC0CF81E0C3CF80E0C1CF82E042
:10099000BFCF83E0BDCF0F931F93CF93DF93162F6D
:1009A000072FC8ECD3E0AA81BB81998521E0209371
:1009B000FB0290931D031092FC0210921E03ED9116
:1009C000FC9111970190F081E02D682FCD010995E0
:1009D0008A819B81DC01ED91FC910190F081E02DF9
:1009E000602F09958A819B81DC01ED91FC9101903A
:1009F000F081E02D612F099581E0DF91CF911F916A
:100A00000F910C94DB030895E091AE028091AD024A
:100A1000E81730F4F0E0E155FD4F808190E0089553
:100A20008FEF9FEF08959091AE028091AD022FEF6E
:100A30003FEF981748F4E92FF0E0E155FD4F208192
:100A400030E09F5F9093AE02C90108958091AD029E
:100A50009091AE02891B990B0895CF92DF92EF928D
:100A6000FF920F931F93CF93DF937C01CB018A01F9
:100A70002091FB02222389F0EB016B01C40ED51EED
:100A8000CC15DD0569F06991D701ED91FC910190DC
:100A9000F081E02DC7010995F3CF642F0E94750303
:100AA000C801DF91CF911F910F91FF90EF90DF90E0
:100AB000CF900895CF93DF931F92CDB7DEB76983B0
:100AC0002091FB022223F9F020911E03203258F0DE
:100AD00021E030E0FC013383228390E080E00F903E
:100AE000DF91CF9108958091FC02E82FF0E0E35070
:100AF000FD4F998190838F5F8093FC0280931E034A
:100B000081E090E0ECCF61E0CE0101960E94750398
:100B1000F7CFFC01248131E03093FB0220931D03C9
:100B20001092FC0210921E038485682B8CEB93E0DC
:100B30000E945A0581E00C94DB0390E080E0089568
:100B4000CF92DF92EF92FF920F931F93CF93A091DA
:100B5000CA03B091CB039091D10321E02093FB0213
:100B600090931D031092FC0210921E03ED91FC91D4
:100B700011970190F081E02D682FCD01099580E05B
:100B80000E94DB03C091D1030E9455016B017C01DF
:100B90008091F502811165C081E08093F502809318
:100BA000F4029FEF9093F3021092F2028093F1020D
:100BB0008093D0028091D002CC0FC82BC093D0027A
:100BC0008091CF02813009F0AAC01092CF020E941A
:100BD00055016B017C018091D0028093BB00809114
:100BE000F7029091F802A091F902B091FA02892BD4
:100BF0008A2B8B2BA1F00E9455010091F7021091D6
:100C0000F8022091F9023091FA026C197D098E09DF
:100C10009F09061717072807390708F443C0809172
:100C2000BC0083FDD8CF85EC8093BC000E945501A9
:100C30006B017C018091F502813009F472C08091D2
:100C4000F202823008F08FC08091F202E1EDF2E012
:100C5000AFEAB2E090E0981751F121912D939F5F98
:100C6000FACF8091F7029091F802A091F902B09129
:100C7000FA02892B8A2B8B2B09F48ACF0E9455010B
:100C80000091F7021091F8022091F9023091FA02D6
:100C90006C197D098E099F09061717072807390760
:100CA00008F076CF8091F6020E94BA0380E010929D
:100CB000AE028093AD028091CA039091CB03DC0118
:100CC000ED91FC910084F185E02D0995892B09F4C3
:100CD0004CC08091CA039091CB03DC01ED91FC9153
:100CE0000284F385E02D0995C82F8091CA03909165
:100CF000CB03DC01ED91FC910284F385E02D099595
:100D00002C2F30E0322F2227820F932F911DCF916D
:100D10001F910F91FF90EF90DF90CF90089585EE97
:100D200083CF8091F7029091F802A091F902B091DF
:100D3000FA02892B8A2B8B2B09F47CCF0E94550158
:100D40000091F7021091F8022091F9023091FA0215
:100D50006C197D098E099F0906171707280739079F
:100D600008F068CF9FCF82E071CF80E0C0E0C8CFAD
:100D7000CF93DF93EC0181E00E94A005D093D003D4
:100D8000C093CF039E77BE01682B792B81E0DF9162
:100D9000CF910C94CB044F925F926F927F928F927F
:100DA0009F92AF92BF92EF92FF920F931F93CF93B8
:100DB000DF93EC01A090CD03B090CE0381E00E94C0
:100DC000A0058C0180E091E00E94B806C11584E086
:100DD000D80709F4A1C058F52097D1F1C11582E0D8
:100DE000D807E9F1C801892F992786958770992737
:100DF0008C179D07D1F5B80171776C2B7D2B81E0A5
:100E00000E94CB0481E00E94A005807E9927DF919B
:100E1000CF911F910F91FF90EF90BF90AF909F9057
:100E20008F907F906F905F904F900C94AD01C115A3
:100E300088E0D80709F473C0C1158AE0D80709F41F
:100E400071C0C11586E0D80769F680E094E009C05A
:100E500080E098E19093CE038093CD03C3CF80E0F0
:100E600090E19093CE038093CD03C80183709927BE
:100E7000039709F283E00E94A0057C01B50190E090
:100E800080E00E9475114B015C016091CD0370916F
:100E9000CE0390E080E00E9475119B01AC01C5017A
:100EA000B4010E94CD102B013C01B701FF0C880B4F
:100EB000990B0E9477119B01AC01C301B2010E9402
:100EC00003120E943F1183E00E94CB0482E00E9443
:100ED000A0057C016091CD037091CE0390E080E08D
:100EE0000E9475119B01AC01C501B4010E94CD1097
:100EF0004B015C01B701FF0C880B990B0E94771125
:100F00009B01AC01C501B4010E9403120E943F1174
:100F100082E00E94CB046FCF80E098E0A2CF80E017
:100F200092E09FCF80E091E09CCF0F931F93CF93EF
:100F3000DF9381E00E94A0058C0190E080E00E9498
:100F4000CB068091CF039091D0038115914059F445
:100F500090E080E00E94B80681E00E94A005807EBB
:100F600099270E94AD0180E00E94A005892BC1F164
:100F700080E00E94A005811520E8920711F481E02D
:100F800090E897FF03C0919581959109C0E0DAE060
:100F9000853424E09207CCF0C0E0D8E0893828E01E
:100FA00092079CF0C0E0D6E0823121E192076CF01C
:100FB000C0E0D4E0823222E292073CF0C0E0D2E00E
:100FC0008434944414F0D0E0C0E0B80181E00E9481
:100FD000CB04CE01DF91CF911F910F910C94CB06E2
:100FE00080E00E94A005919581959109C4CF0F934F
:100FF0001F93CF938C01C62F0E9489056C2F6460CC
:10100000C8010E9489056C2F6B7FC8010E94890569
:1010100083EC90E00197F1F7CF911F910F91089524
:101020000F931F93CF93DF938C01D62FC42F607F34
:10103000642B0E94F70780E1D89FB00111246C2B2C
:10104000C801DF91CF911F910F910C94F707CF93B7
:10105000DF93CDB7DEB728970FB6F894DEBF0FBE8B
:10106000CDBF98E0E0E0F1E0DE01119601900D9235
:101070009A95E1F790917704961710F46FEF690F46
:10108000262F30E0220F331F41E050E04C0F5D1F50
:10109000240F351FF9016081680F606840E08FE61A
:1010A00094E028960FB6F894DEBF0FBECDBFDF9157
:1010B000CF910C94100841E00E94100881E090E06C
:1010C0000895FB0101900020E9F73197AF01461B1D
:1010D000570BDC01ED91FC910280F381E02D099426
:1010E0000F931F93CF93DF938C01EB0160E080E0BF
:1010F0000E9427080115110529F0B8018FE694E038
:101100000E94610861E080E00E942708209749F072
:10111000BE018FE694E0DF91CF911F910F910C9467
:101120006108DF91CF911F910F910895CF93C82F40
:1011300064EE73E083ED93E00E9470086C2F80E012
:101140000E94270860E08FE694E00E945B0881E03F
:10115000CF91089585ED8093BC008091F702909126
:10116000F802A091F902B091FA020796A11DB11DF3
:1011700023E0B695A795979587952A95D1F7209165
:10118000BC0024FD03C01092F50208954091F702BF
:101190005091F8026091F9027091FA02452B462BAA
:1011A000472B69F30097A105B10541F02AE22A9582
:1011B000F1F700C00197A109B109E1CF8091F602D2
:1011C0000C94BA031F920F920FB60F9211242F9313
:1011D0003F938F939F93AF93BF938091A50290917C
:1011E000A602A091A702B091A8023091A40223E028
:1011F000230F2D3758F50196A11DB11D2093A40290
:101200008093A5029093A602A093A702B093A80290
:101210008091A9029091AA02A091AB02B091AC0278
:101220000196A11DB11D8093A9029093AA02A093DB
:10123000AB02B093AC02BF91AF919F918F913F9160
:101240002F910F900FBE0F901F90189526E8230F37
:101250000296A11DB11DD2CF1F920F920FB60F9211
:1012600011242F933F934F935F936F937F938F93AB
:101270009F93AF93BF93EF93FF938FE193E00E940F
:10128000E502FF91EF91BF91AF919F918F917F9177
:101290006F915F914F913F912F910F900FBE0F90E3
:1012A0001F9018951F920F920FB60F9211242F9333
:1012B0008F939F93EF93FF93E0912F03F09130036F
:1012C0008081E0913503F091360382FD1BC090814F
:1012D000809138038F5F8F7320913903821741F01B
:1012E000E0913803F0E0E15EFC4F958F8093380386
:1012F000FF91EF919F918F912F910F900FBE0F90C3
:101300001F9018958081F4CF1F920F920FB60F9205
:1013100011242F933F934F935F936F937F938F93FA
:101320009F93AF93BF93EF93FF938091B900887F12
:10133000803609F44AC0F0F5883209F4A7C018F5E0
:10134000803109F49BC0B8F4882309F4F9C08830CF
:1013500009F494C0FF91EF91BF91AF919F918F914C
:101360007F916F915F914F913F912F910F900FBEA1
:101370000F901F901895883109F488C0803251F77A
:101380008093F30214C0803409F49DC040F480338C
:10139000B9F38833F9F68093F30285ECB0C0803559
:1013A00009F485C0883509F496C0883499F60E94FE
:1013B000AA08D0CF883909F48CC038F5883729F0CD
:1013C00050F4883611F0803729F683E08093F502D7
:1013D0001092910257C0883809F47BC0803919F007
:1013E000803809F0B7CF80919102803208F071C047
:1013F000E091910281E08E0F809391028091BB0079
:10140000F0E0EF58FD4F80833DC0803B39F0E0F4C1
:10141000803A09F479C0883A09F09CCF84E080933F
:10142000F5021092700210926F02E0919402F09116
:101430009502099580916F0281110FC081E0809320
:101440006F0210924F0209C0803C09F4A6CF883C7D
:1014500009F4A3CF883B09F07DCFE091700281E0D1
:101460008E0F80937002F0E0E15BFD4F80818093EE
:10147000BB009091700280916F0229C08091D002D0
:101480008093BB0085EC8093BC0064CF9091F20206
:101490008091F102981758F5E091F20281E08E0FE9
:1014A0008093F202F0E0EF52FD4F8081E9CFE091AE
:1014B000F20281E08E0F8093F2028091BB00F0E097
:1014C000EF52FD4F80839091F2028091F1029817C4
:1014D000C8F285E8D8CFE091F20281E08E0F8093C8
:1014E000F2028091BB00F0E0EF52FD4F80838091CB
:1014F000F40281115CCF81E08093CF0284EA809373
:10150000BC001092F50226CF85EC8093BC001092AF
:10151000F50280919102803230F4E0919102F0E086
:10152000EF58FD4F10826091910270E0E0919202BD
:10153000F091930281E792E00995109291020ACF0F
:101540001092F30234CFCF93DF93EFE1F3E01382F5
:10155000128288EE93E0A0E0B0E084839583A683B6
:10156000B7832DE731E03183208325EC30E03587E8
:10157000248724EC30E03787268720EC30E0318B5D
:10158000208B21EC30E0338B228B22EC30E0358B4A
:10159000248B26EC30E0378B268B118E128E138E27
:1015A000148ECCEBD3E01B821A828C839D83AE8396
:1015B000BF838FE891E09983888380E2E8E0F1E0DF
:1015C000A5EFB3E001900D928A95E1F780E2E8E2A1
:1015D000F1E0A5E1B4E001900D928A95E1F780E297
:1015E000E8E4F1E0A5E3B4E001900D928A95E1F71B
:1015F000E5E5F4E088E0DF011D928A95E9F784E0F3
:101600008093560496E0909357042FE1209358045A
:101610009093590480935A0488E0E8E6F1E0ADE540
:10162000B4E001900D928A95E1F785E0E0E7F1E002
:10163000A5E6B4E001900D928A95E1F780917501DD
:1016400090917601A0917701B091780180936A041E
:1016500090936B04A0936C04B0936D041092720489
:101660001092710481EA91E09093700480936F046A
:101670001092780487E28093730480E18093790468
:1016800082E080937A0410927B04E8ECF3E085E03A
:101690008183D383C28388E48187DF91CF910895CA
:1016A000789484B5826084BD84B5816084BD85B53D
:1016B000826085BD85B5816085BD80916E00816049
:1016C00080936E00109281008091810082608093EF
:1016D00081008091810081608093810080918000F1
:1016E0008160809380008091B10084608093B1001C
:1016F0008091B00081608093B00080917A00846016
:1017000080937A0080917A00826080937A00809141
:101710007A00816080937A0080917A00806880935B
:101720007A001092C100E0912F03F091300382E023
:101730008083E0912B03F0912C031082E0912D0324
:10174000F0912E0380E1808310923703E091330300
:10175000F091340386E08083E0913103F09132030D
:10176000808180618083E0913103F0913203808138
:1017700088608083E0913103F0913203808180683A
:101780008083E0913103F091320380818F7D8083EB
:101790001092AE021092AD021092FC0210921E0343
:1017A0000E949C0385E692E09093950280939402B8
:1017B00086E692E0909393028093920210927404D2
:1017C00080917A04823018F098E0909374048093AA
:1017D000770462E370E080E090E00E947A0160911B
:1017E0007B048FE694E00E94890568EE73E080E058
:1017F00090E00E947A0160E38FE694E00E94F70790
:10180000CBE4D6E4CE010197F1F760E38FE694E0F4
:101810000E94F7072197F1F760E38FE694E00E94BA
:10182000F70783E592E00197F1F760E28FE694E035
:101830000E94F70760917404606240E08FE694E0D4
:101840000E94100884E08093750440E06CE08FE60D
:1018500094E00E94100840E061E08FE694E00E946E
:1018600010088BE39FE10197F1F7809178048823BA
:1018700021F060E080E00E94270882E080937604F7
:1018800040E066E08FE694E00E94100840E062E0ED
:101890008FE694E00E9410088BE39FE10197F1F737
:1018A00088E080937B0460E08FE694E00E948905E5
:1018B00040E060E48FE694E00E941008C5E5D4E0C3
:1018C00053EDC52E53E0D52E0DE514E069918FE65A
:1018D00094E00E945B080C171D07C1F740E068E424
:1018E0008FE694E00E941008CDE5D4E005E614E010
:1018F00069918FE694E00E945B080C171D07C1F701
:1019000083EE93E003ED13E020E2F80121938F01D1
:101910008E179F07D1F744EEE42E43E0F42E84EFB8
:1019200093E0E70120E229938C179D07E1F760E03F
:1019300086E00E94240160E087E00E94240160E0CC
:1019400088E00E94240161E082E00E94240161E0BD
:1019500083E00E94240161E084E00E94240161E0B0
:1019600085E00E9424011092CC038091D10391E084
:101970009093FB0280931D031092FC0210921E03B1
:1019800081E00E94DB03882309F497C066EB71E0D5
:101990008FE193E00E9461086FEC71E08FE193E0CA
:1019A0000E94610890E080E00E94CB0682ED91E009
:1019B0009F938F931F9230E1B32EBF9283ED93E0FC
:1019C0009F938F930E94FC1383EE91E09F938F93DC
:1019D0001F92BF9284EE93E09F938F930E94FC131B
:1019E00064EE73E083ED93E00E94700864E670E0BB
:1019F00080E090E00E947A010E94260260939E029D
:101A000070939F028093A0029093A10281E090E0E6
:101A10009093A3028093A2028DB79EB70C960FB647
:101A2000F8949EBF0FBE8DBF80E2F60181936F01D7
:101A30000E171F07D1F780E2F70181937F01EC17A2
:101A4000FD07D1F764EE73E083ED93E00E94700828
:101A500004EE13E024E0222E312C86E090E00E9478
:101A60003202C82F87E090E00E943202C82B88E043
:101A700090E00E943202C82B8091A2029091A302B2
:101A80008330910509F40BC2A0F58130910509F46A
:101A90006EC0029709F48DC164E670E080E090E0CA
:101AA0000E947A0180E090E0892BB9F20E94D10275
:101AB000882381F20E940000CDCF63E875E881E0C1
:101AC0000E94CB0480E094E00E94CB0660E070E8C6
:101AD00082E00E94CB046FEF7FE783E00E94CB049B
:101AE00080E091E09093D0038093CF031092D203D3
:101AF00059CF8430910509F461C2059769F663E412
:101B000072E083ED93E00E94F513E0919C02F09166
:101B10009D02EE0FFF1FE659FB4F81818F9380815D
:101B20008F9389E492E09F938F931F9280E18F932C
:101B30001F930F930E94FC1381E00E9496088DB7BB
:101B40009EB708960FB6F8949EBF0FBE8DBF8EEF5E
:101B50008C0F823008F082C280919C0290919D028D
:101B6000E1E08E2790939D0280939C0295CF0E9486
:101B70002602C0909E02D0909F02E090A002F090BA
:101B8000A1026C197D098E099F09643671058105D2
:101B9000910508F481CFD091C903F090C803812C3E
:101BA000912C5401E12C81E00E94A0056C01BC0144
:101BB0007F70706481E00E94CB04D0FC0BC081E098
:101BC0000E94A005807E99276C010E94AD01C6018C
:101BD0000E94AD0181E00E94A005BC01706881E017
:101BE0000E94CB0481E00E94A0052091CF03309198
:101BF000D0032115314041F497FD06C060E070E04C
:101C0000CB010E947A01EECF80E00E94A005BC01CA
:101C10008091D203882301F1611520E8720709F44D
:101C2000A4C0362F272F832F922F97FF03C09195A3
:101C3000819591092091CD033091CE03873646E6F8
:101C400094070CF495C02115384131F00E94950796
:101C500080E00E94A005BC01072E000C880B990BA8
:101C60000E94771120E030E040E058E30E94031228
:101C70002B013C016091CD037091CE0390E080E098
:101C80000E9475119B01AC01C301B2010E940312B5
:101C90009B01AC01C501B4010E9461104B015C01C4
:101CA000E394FE1408F07FCF6F2D70E090E080E0A9
:101CB0000E9477119B01AC01C501B4010E94CD10B7
:101CC0009B01AC01D33009F46AC008F05AC0D2308D
:101CD00021F020E030E040E050E05F934F933F93ED
:101CE0002F9384EF91E09F938F931F92D0E1DF9326
:101CF00083ED93E09F938F930E94FC13E0919C02ED
:101D0000F0919D02EE0FFF1FE659FB4F81818F93EB
:101D100080818F93E0919A02F0919B02EB59FB4FE7
:101D200080811F928F9381E092E09F938F931F9207
:101D3000DF931F930F930E94FC1364EE73E083ED17
:101D400093E00E9470088DB79EB744960FB6F89442
:101D50009EBF0FBE8DBFE2E0F0E0C43009F09CCE24
:101D6000F093A302E093A20297CE31E020E85BCF8C
:101D7000883496420CF070CF2115314009F066CFBF
:101D80006BCFD43089F020E030E04AE754E4D5301E
:101D900009F09FCF0E94CD109B01AC019ECF20E0A7
:101DA00030E040E251E4F6CF20E030E048EC52E48D
:101DB000F1CF69E072E083ED93E00E94F5136FE0EC
:101DC00072E084EE93E00E94F51380919802909166
:101DD0009902029761F468E172E083ED93E00E945A
:101DE000F5136DE172E084EE93E00E94F51380E05C
:101DF0000E949608E0909802F0909902E0FC09C0D9
:101E000060E080E00E94270860E08FE694E00E9496
:101E10005B08C70162E070E00E943210019749F44C
:101E200060E081E00E94270860E08FE694E00E9475
:101E30005B08C7010196C33021F0C23051F4C701DD
:101E40000396B1010E9432109093990280939802F8
:101E500023CEC43009F020CEF1E0EF16F104B9F042
:101E600054F483E090E0EF2809F016CE9093A3029B
:101E70008093A20211CE42E0E416F10469F083E0FF
:101E8000E816F10409F008CE81E090E0EFCF30923F
:101E9000A3022092A20200CEE5E0F0E061CF62E270
:101EA00072E083ED93E00E94F513609196027091C9
:101EB0009702072E000C880B990B0E9477119B014B
:101EC000AC0160E070E080E291E40E9470120E9438
:101ED0003F117F936F93EDE2F2E0FF93EF931F9238
:101EE00080E18F931F930F930E94FC1381E00E9467
:101EF00096088DB79EB708960FB6F8949EBF0FBE92
:101F00008DBFC23071F4809196029091970218169D
:101F100019060CF0C1CD0197909397028093960219
:101F2000BBCDC33051F480919602909197028330DB
:101F300091050CF0B1CD0196EFCFC43009F0ACCDD6
:101F4000C0919602C33051F1B0F4C23009F09CCF79
:101F500061E082E00E94F60060E083E00E94F6000B
:101F600060E084E00E94F60060E085E00E94F600F8
:101F7000C093C90389CFC430B9F0C53009F084CF0C
:101F800060E082E00E94F60060E083E00E94F600DC
:101F900060E084E00E94F60061E0E7CF60E082E06C
:101FA0000E94F60061E0D9CF60E082E00E94F60076
:101FB00060E083E00E94F60061E0D3CF64E372E06A
:101FC00083ED93E00E94F513E0919A02F0919B0259
:101FD000EB59FB4F80811F928F93EEE3F2E0FF936A
:101FE000EF931F9280E18F931F930F930E94FC1336
:101FF00081E00E9496088DB79EB708960FB6F894B8
:102000009EBF0FBE8DBFC23071F480919A02909135
:102010009B02181619060CF03FCD019790939B0276
:1020200080939A0239CDC33051F480919A029091F5
:102030009B02843091050CF02FCD0196EFCFC43078
:1020400009F02ACDE0919A02F0919B02EB59FB4FE7
:1020500080818093C803E1E0F0E082CEC43009F4CF
:1020600013CF1ACD97FB072E16F4009407D077FDF7
:1020700009D00E94461007FC05D03EF4909581954A
:102080009F4F0895709561957F4F0895AA1BBB1BC4
:1020900051E107C0AA1FBB1FA617B70710F0A61B68
:1020A000B70B881F991F5A95A9F780959095BC0189
:1020B000CD010895EE0FFF1F0590F491E02D0994D6
:1020C0005058BB27AA270E9478100C94C9110E946F
:1020D000BB1138F00E94C21120F039F49F3F19F46F
:1020E00026F40C94B8110EF4E095E7FB0C94B211B1
:1020F000E92F0E94DA1158F3BA17620773078407B1
:10210000950720F079F4A6F50C94FC110EF4E095F7
:102110000B2EBA2FA02D0B01B90190010C01CA01A1
:10212000A0011124FF27591B99F0593F50F4503E4C
:1021300068F11A16F040A22F232F342F4427585F3E
:10214000F3CF469537952795A795F0405395C9F756
:102150007EF41F16BA0B620B730B840BBAF091500E
:10216000A1F0FF0FBB1F661F771F881FC2F70EC0AD
:10217000BA0F621F731F841F48F487957795679580
:10218000B795F7959E3F08F0B0CF9395880F08F06C
:102190009927EE0F9795879508950E94E1100C946A
:1021A000C9110E94C21158F00E94BB1140F029F4DD
:1021B0005F3F29F00C94B21151110C94FD110C9455
:1021C000B8110E94DA1168F39923B1F3552391F302
:1021D000951B550BBB27AA2762177307840738F096
:1021E0009F5F5F4F220F331F441FAA1FA9F335D0F3
:1021F0000E2E3AF0E0E832D091505040E695001CA7
:10220000CAF72BD0FE2F29D0660F771F881FBB1F60
:10221000261737074807AB07B0E809F0BB0B802D3E
:10222000BF01FF2793585F4F3AF09E3F510578F06A
:102230000C94B2110C94FD115F3FE4F3983ED4F37B
:10224000869577956795B795F7959F5FC9F7880F3E
:10225000911D9695879597F90895E1E0660F771F90
:10226000881FBB1F621773078407BA0720F0621B21
:10227000730B840BBA0BEE1F88F7E09508950E944C
:1022800046116894B1110C94FD1108950E94E21159
:1022900088F09F5798F0B92F9927B751B0F0E1F027
:1022A000660F771F881F991F1AF0BA95C9F714C0D7
:1022B000B13091F00E94FC11B1E008950C94FC1132
:1022C000672F782F8827B85F39F0B93FCCF3869510
:1022D00077956795B395D9F73EF49095809570956D
:1022E00061957F4F8F4F9F4F0895E89409C097FBEA
:1022F0003EF490958095709561957F4F8F4F9F4FDD
:102300009923A9F0F92F96E9BB279395F695879520
:1023100077956795B795F111F8CFFAF4BB0F11F4E3
:1023200060FF1BC06F5F7F4F8F4F9F4F16C088238A
:1023300011F096E911C0772321F09EE8872F762FC0
:1023400005C0662371F096E8862F70E060E02AF001
:102350009A95660F771F881FDAF7880F96958795ED
:1023600097F9089597F99F6780E870E060E0089515
:102370009FEF80EC089500240A941616170618069D
:102380000906089500240A94121613061406050679
:102390000895092E0394000C11F4882352F0BB0F0A
:1023A00040F4BF2B11F460FF04C06F5F7F4F8F4F6D
:1023B0009F4F089557FD9058440F551F59F05F3FA8
:1023C00071F04795880F97FB991F61F09F3F79F057
:1023D00087950895121613061406551FF2CF4695D9
:1023E000F1DF08C0161617061806991FF1CF86955B
:1023F0007105610508940895E894BB27662777273F
:10240000CB0197F908950E9416120C94C9110E94ED
:10241000BB1138F00E94C21120F0952311F00C94EA
:10242000B2110C94B81111240C94FD110E94DA1110
:1024300070F3959FC1F3950F50E0551F629FF00117
:10244000729FBB27F00DB11D639FAA27F00DB11D30
:10245000AA1F649F6627B00DA11D661F829F2227B9
:10246000B00DA11D621F739FB00DA11D621F839F40
:10247000A00D611D221F749F3327A00D611D231F16
:10248000849F600D211D822F762F6A2F11249F5764
:1024900050409AF0F1F088234AF0EE0FFF1FBB1F67
:1024A000661F771F881F91505040A9F79E3F510526
:1024B00080F00C94B2110C94FD115F3FE4F3983E50
:1024C000D4F3869577956795B795F795E7959F5FD0
:1024D000C1F7FE2B880F911D9695879597F9089562
:1024E000FA01EE0FFF1F309621053105A1F16115AC
:1024F000710561F48038BFE39B0749F16894903817
:10250000810561F08038BFEF9B0741F099234AF5C0
:10251000FF3FE1053105210519F1E8940894E7959D
:10252000D901AA2329F4AB2FBE2FF85FD0F310C036
:10253000FF5F70F4A695E0F7F73950F019F0FF3A15
:1025400038F49F779F930DD00F9007FC9058089513
:1025500046F00C94B81160E070E080E89FE30895C5
:102560004FE79F775F934F933F932F930E946B1397
:102570002F913F914F915F910E9403120C94C812CA
:1025800029F416F00C94B2110C94FC110C94B811AF
:102590000E94E211A8F39638A0F707F80F92E8948A
:1025A0002BE33AEA48EB5FE70E9419120F920F9271
:1025B0000F924DB75EB70F920E94B313E8E6F0E0BA
:1025C0000E94FA124F915F91EF91FF91E595EE1FF6
:1025D000FF1F49F0FE57E0684427EE0F441FFA95AD
:1025E000E1F74195550B0E942D130F9007FE0C94B7
:1025F00021130895DF93CF931F930F93FF92EF92D0
:10260000DF927B018C01689406C0DA2EEF010E94F4
:102610001612FE01E894A5912591359145915591A9
:10262000A6F3EF010E947810FE019701A801DA9449
:1026300069F7DF90EF90FF900F911F91CF91DF919D
:1026400008959B01AC0160E070E080E89FE30C948A
:10265000CD100C94B2110C94E7130E94E211D8F340
:102660009923C9F3940F511DA3F39150504094F056
:1026700059F0882332F0660F771F881F9150504021
:10268000C1F79E3F51052CF7880F911D96958795B0
:1026900097F908955F3FACF0983E9CF0BB27869574
:1026A00077956795B79508F4B1609395C1F7BB0F1F
:1026B00058F711F460FFE8CF6F5F7F4F8F4F9F4F48
:1026C000E3CF0C94FD1116F00C94E7130C94B811A1
:1026D00068940C94B2110E94E211A8F39923C1F3FB
:1026E000AEF3DF93CF931F930F93FF92C92FDD2794
:1026F00088232AF02197660F771F881FDAF720E0DA
:1027000030E040E85FEB9FE3883920F0803E38F00E
:1027100021968F770E946110E0E9F0E004C00E94EA
:102720006110EDEBF0E00E94FA128B01BE01EC01AA
:10273000FB2E6F5771097595771F880B990B0E94B7
:10274000771128E132E741E35FE30E941612AF2DD3
:102750009801AE01FF900F911F91CF91DF910E94E0
:1027600078100C94C911FA01DC01AA0FBB1F9B0160
:10277000AC01BF5728F4222733274427507820C0C4
:10278000B75190F4AB2F0024469537952795011C3F
:10279000A395D2F3002071F0220F331F441FB3958D
:1027A000DAF30ED00C94601061307105A0E88A074E
:1027B000B94630F49B01AC016627772788279078CB
:1027C000309621F0208331834283538308959F3FC5
:1027D00031F0915020F4879577956795B795880FDC
:1027E000911D9695879597F90895FB01DC0101905D
:1027F0000D920020E1F70895AEE0B0E0E2E0F4E1F0
:102800000C94B8160D891E898F89988D26E02C832B
:102810001A83098397FF02C080E090E801979E83A6
:102820008D83AE01455E5F4F698D7A8DCE01019635
:102830000E942C144D815E8157FD0AC02F8138857E
:10284000421753070CF49A01020F131FF80110826C
:102850002E96E4E00C94D416ABE0B0E0E2E3F4E1B1
:102860000C94AA167C013B018A01FC011782168296
:10287000838181FFC8C1CE0101965C01F70193817C
:10288000F30193FD859193FF81913F01882309F422
:1028900053C1853239F493FD859193FF81913F01B6
:1028A000853229F4B70190E00E941C16E7CF912CE5
:1028B000212C312CFFE1F31538F08B3211F190F41B
:1028C000803209F1833229F137FC3CC020ED280F1A
:1028D0002A3050F536FE20C08AE0989E200D112443
:1028E000922E06C08D3291F0803371F7689430F8E3
:1028F000F30193FD859193FF81913F018111DACF1F
:1029000021C0689431F8689432F8F2CF689433F8B3
:10291000EFCF689434F8ECCFEAE02E9E200D11241E
:10292000222E689435F8E4CF8E3229F436FC04C1A7
:10293000689436F8DDCF8C3619F4689437F8D8CF20
:102940008836B1F2982F9F7D95549330E0F083360E
:10295000A1F18337C1F1833509F063C02801F2E0AA
:102960004F0E511CF801C080D180692D70E036FCFB
:1029700002C06FEF7FEFC6010E9406164C016894FB
:1029800037F882010AC00C5F1F4FFFE3F9838824E8
:102990008394912C6501E89437F833FE2DC0522CB6
:1029A0008114910471F5552009F468CFB70180E2D4
:1029B00090E00E941C165A94F6CFF801808189831A
:1029C0000E5F1F4FE4CF2801F2E04F0E511CF801BB
:1029D000C080D180692D70E036FC02C06FEF7FEFC0
:1029E000C6010E9411164C018201D5CFB70180E2C9
:1029F00090E00E941C162A942814190409F0B0F7DC
:102A0000CECFF60137FC859137FE81916F01B7017A
:102A100090E00E941C1651105A94F1E08F1A910810
:102A2000BFCF843619F0893609F077C0F80137FE38
:102A30006BC060817181828193810C5F1F4FF32D88
:102A4000FF763F2E97FF09C0909580957095619510
:102A50007F4F8F4F9F4F689437F82AE030E0A501F1
:102A60000E944C16C82ECA188C2C432C36FE0CC063
:102A7000E89440F8C91440F434FE05C032FC03C0A9
:102A8000F32DFE7E4F2E892C44FE95C0FE01EC0DE9
:102A9000F11D8081803309F087C0242D297E422ECC
:102AA000842D8870582E43FC95C040FE8FC09C2C0E
:102AB000821418F42C0C922C981844FE91C0B70183
:102AC00080E390E00E941C1642FE09C088E790E077
:102AD00041FE02C088E590E0B7010E941C16C914AF
:102AE00008F48AC0CA94D12C9FEFC91AD90ACA0C1B
:102AF000DB1CF60182916F01B70190E00E941C1669
:102B0000AC14BD04B1F74FCF60817181072E000C6A
:102B1000880B990B0E5F1F4F92CFD32CE894D4F8FB
:102B20002AE030E0853739F1232D297FD22E8F36E8
:102B300001F148F48835A9F0F701868197812B9639
:102B4000E2E10C94C616803749F08837A9F7D4FE25
:102B500002C06894D2F820E130E00DC06894D4F847
:102B6000F6CF34FE03C0822F8660D82E20E132E0FB
:102B700002C028E030E0F801D7FE0FC0608171810B
:102B8000828193810C5F1F4FA5010E944C16C82EB5
:102B9000CA183D2CE89437F867CF6081718190E0C6
:102BA00080E00E5F1F4FF0CF42FC02C0839478CFCD
:102BB0008394839475CF842D867809F471CFF6CFF2
:102BC000B70180E290E00E941C1683948214C0F347
:102BD000512C73CF522C5818821408F46ECFF8CFB2
:102BE000842D867809F47BCF8BE241FE80E247FC9E
:102BF0008DE2B70190E071CFB70180E390E00E94D1
:102C00001C169A946CCF8FEF9FEF99CFFC01059023
:102C1000615070400110D8F7809590958E0F9F1FDE
:102C20000895FC016150704001900110D8F7809523
:102C300090958E0F9F1F08950F931F93CF93DF934F
:102C4000182F092FEB018B8181FD09C01FEF0FEFBA
:102C5000812F902FDF91CF911F910F91089582FFC7
:102C600014C02E813F818C819D81281739073CF447
:102C7000E881F981CF0101969983888310838E8141
:102C80009F8101969F838E83E3CFE885F985812F0D
:102C90000995892BA1F3DACFFA01AA27283051F13F
:102CA000203181F1E8946F936E7F6E5F7F4F8F4F7D
:102CB0009F4FAF4FB1E03ED0B4E03CD0670F781FDC
:102CC000891F9A1FA11D680F791F8A1F911DA11DC1
:102CD0006A0F711D811D911DA11D20D009F46894FA
:102CE0003F912AE0269F11243019305D3193DEF6A2
:102CF000CF010895462F4770405D4193B3E00FD058
:102D0000C9F7F6CF462F4F70405D4A3318F0495D42
:102D100031FD4052419302D0A9F7EACFB4E0A69525
:102D20009795879577956795BA95C9F70097610547
:102D3000710508959B01AC010A2E0694579547959D
:102D400037952795BA95C9F7620F731F841F951F92
:102D5000A01D08952F923F924F925F926F927F92A3
:102D60008F929F92AF92BF92CF92DF92EF92FF929B
:102D70000F931F93CF93DF93CDB7DEB7CA1BDB0B47
:102D80000FB6F894DEBF0FBECDBF09942A883988EC
:102D900048885F846E847D848C849B84AA84B984F3
:102DA000C884DF80EE80FD800C811B81AA81B981FF
:102DB000CE0FD11D0FB6F894DEBF0FBECDBFED0113
:062DC0000895F894FFCF16
:102DC60000004000140054002053455455500000A4
:102DD6000000000000000000204D454153555245BB
:102DE60000000000000000002052616E67653A2076
:102DF60000000000000000002041766572616765F2
:102E06003A20000000000000493D3130306D41207D
:102E1600204176673D333200203130306D4F686D8A
:102E260073000000000000001F1B1900191B1F1F64
:102E36000102041020A901B0010000000007036789
:102E46000294025403C502A302B702000000005A0E
:102E5600052D059D0503052605130504050000003F
:102E6600005B0867029D05740353696E676C650015
:102E7600436F6E742E0043616E277420636F6E6E0F
:102E860065637420746F2074686520414443000DA7
:102E96000A004245455220656C656374726F6E691F
:102EA600637300204D696C6C696F686D204D6574A5
:102EB60065722000523A25302E3266206D4F686DBD
:102EC60000413A25642025730052616E6765004112
:102ED60076657261676573004D6F64650042616374
:102EE6006B005365742052616E67653A003E20257B
:102EF600646D410041766572616765733A003E20F4
:0E2F06002564004D6F64653A003E202573007F
:00000001FF
